{
  "contractName": "PikoToken",
  "abi": [
    {
      "constant": true,
      "inputs": [],
      "name": "name",
      "outputs": [
        {
          "name": "",
          "type": "string"
        }
      ],
      "payable": false,
      "stateMutability": "view",
      "type": "function",
      "signature": "0x06fdde03"
    },
    {
      "constant": true,
      "inputs": [],
      "name": "totalSupply",
      "outputs": [
        {
          "name": "",
          "type": "uint256"
        }
      ],
      "payable": false,
      "stateMutability": "view",
      "type": "function",
      "signature": "0x18160ddd"
    },
    {
      "constant": true,
      "inputs": [],
      "name": "version",
      "outputs": [
        {
          "name": "",
          "type": "string"
        }
      ],
      "payable": false,
      "stateMutability": "view",
      "type": "function",
      "signature": "0x54fd4d50"
    },
    {
      "constant": true,
      "inputs": [
        {
          "name": "",
          "type": "address"
        }
      ],
      "name": "balanceOf",
      "outputs": [
        {
          "name": "",
          "type": "uint256"
        }
      ],
      "payable": false,
      "stateMutability": "view",
      "type": "function",
      "signature": "0x70a08231"
    },
    {
      "constant": true,
      "inputs": [],
      "name": "symbol",
      "outputs": [
        {
          "name": "",
          "type": "string"
        }
      ],
      "payable": false,
      "stateMutability": "view",
      "type": "function",
      "signature": "0x95d89b41"
    },
    {
      "constant": true,
      "inputs": [
        {
          "name": "",
          "type": "address"
        },
        {
          "name": "",
          "type": "address"
        }
      ],
      "name": "allowance",
      "outputs": [
        {
          "name": "",
          "type": "uint256"
        }
      ],
      "payable": false,
      "stateMutability": "view",
      "type": "function",
      "signature": "0xdd62ed3e"
    },
    {
      "inputs": [
        {
          "name": "_initSupply",
          "type": "uint256"
        }
      ],
      "payable": false,
      "stateMutability": "nonpayable",
      "type": "constructor",
      "signature": "constructor"
    },
    {
      "anonymous": false,
      "inputs": [
        {
          "indexed": true,
          "name": "_from",
          "type": "address"
        },
        {
          "indexed": true,
          "name": "_to",
          "type": "address"
        },
        {
          "indexed": false,
          "name": "_value",
          "type": "uint256"
        }
      ],
      "name": "Transfer",
      "type": "event",
      "signature": "0xddf252ad1be2c89b69c2b068fc378daa952ba7f163c4a11628f55a4df523b3ef"
    },
    {
      "anonymous": false,
      "inputs": [
        {
          "indexed": true,
          "name": "_owner",
          "type": "address"
        },
        {
          "indexed": true,
          "name": "_spender",
          "type": "address"
        },
        {
          "indexed": false,
          "name": "_value",
          "type": "uint256"
        }
      ],
      "name": "Approval",
      "type": "event",
      "signature": "0x8c5be1e5ebec7d5bd14f71427d1e84f3dd0314c0f7b2291e5b200ac8c7c3b925"
    },
    {
      "constant": false,
      "inputs": [
        {
          "name": "_to",
          "type": "address"
        },
        {
          "name": "_value",
          "type": "uint256"
        }
      ],
      "name": "transfer",
      "outputs": [
        {
          "name": "success",
          "type": "bool"
        }
      ],
      "payable": false,
      "stateMutability": "nonpayable",
      "type": "function",
      "signature": "0xa9059cbb"
    },
    {
      "constant": false,
      "inputs": [
        {
          "name": "_spender",
          "type": "address"
        },
        {
          "name": "_value",
          "type": "uint256"
        }
      ],
      "name": "approve",
      "outputs": [
        {
          "name": "success",
          "type": "bool"
        }
      ],
      "payable": false,
      "stateMutability": "nonpayable",
      "type": "function",
      "signature": "0x095ea7b3"
    },
    {
      "constant": false,
      "inputs": [
        {
          "name": "_from",
          "type": "address"
        },
        {
          "name": "_to",
          "type": "address"
        },
        {
          "name": "_value",
          "type": "uint256"
        }
      ],
      "name": "transferFrom",
      "outputs": [
        {
          "name": "success",
          "type": "bool"
        }
      ],
      "payable": false,
      "stateMutability": "nonpayable",
      "type": "function",
      "signature": "0x23b872dd"
    }
  ],
  "bytecode": "0x60806040526040805190810160405280600a81526020017f50696b6f20546f6b656e00000000000000000000000000000000000000000000815250600090805190602001906200005192919062000180565b506040805190810160405280600481526020017f50494b4f00000000000000000000000000000000000000000000000000000000815250600190805190602001906200009f92919062000180565b506040805190810160405280600381526020017f302e39000000000000000000000000000000000000000000000000000000000081525060029080519060200190620000ed92919062000180565b50348015620000fb57600080fd5b5060405160208062000fcb833981018060405260208110156200011d57600080fd5b810190808051906020019092919050505080600460003373ffffffffffffffffffffffffffffffffffffffff1673ffffffffffffffffffffffffffffffffffffffff1681526020019081526020016000208190555080600381905550506200022f565b828054600181600116156101000203166002900490600052602060002090601f016020900481019282601f10620001c357805160ff1916838001178555620001f4565b82800160010185558215620001f4579182015b82811115620001f3578251825591602001919060010190620001d6565b5b50905062000203919062000207565b5090565b6200022c91905b80821115620002285760008160009055506001016200020e565b5090565b90565b610d8c806200023f6000396000f3fe608060405260043610610099576000357c0100000000000000000000000000000000000000000000000000000000900463ffffffff16806306fdde031461009e578063095ea7b31461012e57806318160ddd146101a157806323b872dd146101cc57806354fd4d501461025f57806370a08231146102ef57806395d89b4114610354578063a9059cbb146103e4578063dd62ed3e14610457575b600080fd5b3480156100aa57600080fd5b506100b36104dc565b6040518080602001828103825283818151815260200191508051906020019080838360005b838110156100f35780820151818401526020810190506100d8565b50505050905090810190601f1680156101205780820380516001836020036101000a031916815260200191505b509250505060405180910390f35b34801561013a57600080fd5b506101876004803603604081101561015157600080fd5b81019080803573ffffffffffffffffffffffffffffffffffffffff1690602001909291908035906020019092919050505061057a565b604051808215151515815260200191505060405180910390f35b3480156101ad57600080fd5b506101b661066c565b6040518082815260200191505060405180910390f35b3480156101d857600080fd5b50610245600480360360608110156101ef57600080fd5b81019080803573ffffffffffffffffffffffffffffffffffffffff169060200190929190803573ffffffffffffffffffffffffffffffffffffffff16906020019092919080359060200190929190505050610672565b604051808215151515815260200191505060405180910390f35b34801561026b57600080fd5b506102746109ff565b6040518080602001828103825283818151815260200191508051906020019080838360005b838110156102b4578082015181840152602081019050610299565b50505050905090810190601f1680156102e15780820380516001836020036101000a031916815260200191505b509250505060405180910390f35b3480156102fb57600080fd5b5061033e6004803603602081101561031257600080fd5b81019080803573ffffffffffffffffffffffffffffffffffffffff169060200190929190505050610a9d565b6040518082815260200191505060405180910390f35b34801561036057600080fd5b50610369610ab5565b6040518080602001828103825283818151815260200191508051906020019080838360005b838110156103a957808201518184015260208101905061038e565b50505050905090810190601f1680156103d65780820380516001836020036101000a031916815260200191505b509250505060405180910390f35b3480156103f057600080fd5b5061043d6004803603604081101561040757600080fd5b81019080803573ffffffffffffffffffffffffffffffffffffffff16906020019092919080359060200190929190505050610b53565b604051808215151515815260200191505060405180910390f35b34801561046357600080fd5b506104c66004803603604081101561047a57600080fd5b81019080803573ffffffffffffffffffffffffffffffffffffffff169060200190929190803573ffffffffffffffffffffffffffffffffffffffff169060200190929190505050610d3b565b6040518082815260200191505060405180910390f35b60008054600181600116156101000203166002900480601f0160208091040260200160405190810160405280929190818152602001828054600181600116156101000203166002900480156105725780601f1061054757610100808354040283529160200191610572565b820191906000526020600020905b81548152906001019060200180831161055557829003601f168201915b505050505081565b600081600560003373ffffffffffffffffffffffffffffffffffffffff1673ffffffffffffffffffffffffffffffffffffffff16815260200190815260200160002060008573ffffffffffffffffffffffffffffffffffffffff1673ffffffffffffffffffffffffffffffffffffffff168152602001908152602001600020819055508273ffffffffffffffffffffffffffffffffffffffff163373ffffffffffffffffffffffffffffffffffffffff167f8c5be1e5ebec7d5bd14f71427d1e84f3dd0314c0f7b2291e5b200ac8c7c3b925846040518082815260200191505060405180910390a36001905092915050565b60035481565b6000600460008573ffffffffffffffffffffffffffffffffffffffff1673ffffffffffffffffffffffffffffffffffffffff168152602001908152602001600020548211151515610751576040517f08c379a000000000000000000000000000000000000000000000000000000000815260040180806020018281038252602e8152602001807f7468652062616c616e636520697320736d616c6c6572207468616e207468652081526020017f7472616e736665722076616c756500000000000000000000000000000000000081525060400191505060405180910390fd5b600560008573ffffffffffffffffffffffffffffffffffffffff1673ffffffffffffffffffffffffffffffffffffffff16815260200190815260200160002060003373ffffffffffffffffffffffffffffffffffffffff1673ffffffffffffffffffffffffffffffffffffffff16815260200190815260200160002054821115151561086b576040517f08c379a00000000000000000000000000000000000000000000000000000000081526004018080602001828103825260308152602001807f7472616e736665722076616c7565206973206c6172676572207468616e20746881526020017f6520617070726f7665642076616c75650000000000000000000000000000000081525060400191505060405180910390fd5b81600460008673ffffffffffffffffffffffffffffffffffffffff1673ffffffffffffffffffffffffffffffffffffffff1681526020019081526020016000206000828254039250508190555081600460008573ffffffffffffffffffffffffffffffffffffffff1673ffffffffffffffffffffffffffffffffffffffff1681526020019081526020016000206000828254019250508190555081600560008673ffffffffffffffffffffffffffffffffffffffff1673ffffffffffffffffffffffffffffffffffffffff16815260200190815260200160002060003373ffffffffffffffffffffffffffffffffffffffff1673ffffffffffffffffffffffffffffffffffffffff168152602001908152602001600020600082825403925050819055508273ffffffffffffffffffffffffffffffffffffffff168473ffffffffffffffffffffffffffffffffffffffff167fddf252ad1be2c89b69c2b068fc378daa952ba7f163c4a11628f55a4df523b3ef846040518082815260200191505060405180910390a3600190509392505050565b60028054600181600116156101000203166002900480601f016020809104026020016040519081016040528092919081815260200182805460018160011615610100020316600290048015610a955780601f10610a6a57610100808354040283529160200191610a95565b820191906000526020600020905b815481529060010190602001808311610a7857829003601f168201915b505050505081565b60046020528060005260406000206000915090505481565b60018054600181600116156101000203166002900480601f016020809104026020016040519081016040528092919081815260200182805460018160011615610100020316600290048015610b4b5780601f10610b2057610100808354040283529160200191610b4b565b820191906000526020600020905b815481529060010190602001808311610b2e57829003601f168201915b505050505081565b600081600460003373ffffffffffffffffffffffffffffffffffffffff1673ffffffffffffffffffffffffffffffffffffffff1681526020019081526020016000205410151515610c32576040517f08c379a00000000000000000000000000000000000000000000000000000000081526004018080602001828103825260268152602001807f6e6f7420656e6f7567682062616c616e636520746f20706572666f726d20747281526020017f616e73666572000000000000000000000000000000000000000000000000000081525060400191505060405180910390fd5b81600460003373ffffffffffffffffffffffffffffffffffffffff1673ffffffffffffffffffffffffffffffffffffffff1681526020019081526020016000206000828254039250508190555081600460008573ffffffffffffffffffffffffffffffffffffffff1673ffffffffffffffffffffffffffffffffffffffff168152602001908152602001600020600082825401925050819055508273ffffffffffffffffffffffffffffffffffffffff163373ffffffffffffffffffffffffffffffffffffffff167fddf252ad1be2c89b69c2b068fc378daa952ba7f163c4a11628f55a4df523b3ef846040518082815260200191505060405180910390a36001905092915050565b600560205281600052604060002060205280600052604060002060009150915050548156fea165627a7a72305820ac4efbfd088faccee69e49739df8ce88003efff28360eb4ed5b1078611135dce0029",
  "source": "pragma solidity ^0.5.0;\r\n\r\ncontract PikoToken{\r\n  string public name = \"Piko Token\";\r\n  string public symbol = \"PIKO\";\r\n  string public version = \"0.9\";\r\n  uint256 public totalSupply;\r\n  mapping (address => uint256) public balanceOf;\r\n  mapping (address => mapping(address => uint256)) public allowance;\r\n\r\n  event Transfer(\r\n    address indexed _from,\r\n    address indexed _to,\r\n    uint256 _value\r\n  );\r\n\r\n  event Approval(\r\n    address indexed _owner,\r\n    address indexed _spender,\r\n    uint256 _value\r\n  );\r\n\r\n  //TODO: Only Owner?\r\n  constructor (uint256 _initSupply) public {\r\n    balanceOf[msg.sender] = _initSupply;\r\n    totalSupply = _initSupply;\r\n  }\r\n\r\n  function transfer(address _to, uint256 _value) public returns (bool success){\r\n    require (balanceOf[msg.sender] >= _value, \"not enough balance to perform transfer\");\r\n    balanceOf[msg.sender] -= _value;\r\n    balanceOf[_to] += _value;\r\n    emit Transfer(msg.sender, _to, _value);\r\n    return true;\r\n  }\r\n\r\n  function approve(address _spender, uint256 _value) public returns (bool success){\r\n    allowance[msg.sender][_spender] = _value;\r\n    emit Approval(msg.sender, _spender, _value);\r\n    return true;\r\n  }\r\n\r\n  //TODO: should event follow transfer? based on erc20 spec, should event not fire first\r\n  function transferFrom(address _from, address _to, uint256 _value) public returns (bool success){\r\n    require(_value <= balanceOf[_from], \"the balance is smaller than the transfer value\");\r\n    require(_value <= allowance[_from][msg.sender], \"transfer value is larger than the approved value\");\r\n    balanceOf[_from] -= _value;\r\n    balanceOf[_to] += _value;\r\n    allowance[_from][msg.sender] -= _value;\r\n    emit Transfer (_from, _to, _value);\r\n    return true;\r\n  }\r\n\r\n}",
  "sourcePath": "C:\\lib\\2DEV\\piko-token\\contracts\\PikoToken.sol",
  "compiler": {
    "name": "solc",
    "version": "0.5.0+commit.1d4f565a.Emscripten.clang"
  },
  "schemaVersion": "3.0.5",
  "updatedAt": "2019-06-16T15:57:24.826Z",
  "devdoc": {
    "methods": {}
  },
  "userdoc": {
    "methods": {}
  }
}